:101A40002346435F46616972795F3330412320202A
:101A500023424C48454C492346383530232020202A
:101A00000E091507070104FFFF09020101A55A018C
:101A100000B4FFFFFF03FF01FF25D078C804FF01DA
:091A200000FF0A010100FF00FFB4
:101A60002020202020202020202020202020202076
:030000000219FDE5
:02000B0001AA48
:02002B00215D55
:02005B0041ED75
:0200730041DA70
:1000800002030406080C10182030406080040608A3
:100090000C10182030406080A0C00003070F1F0D17
:1000A0000D0403060D0503030202C2AFC0D0C0E079
:1000B000206214E5256009E473E525F4F58AD2622F
:1000C000D0E0D0D0D2AF3285268AC262E526F46075
:1000D0003030682620720DD0E0D0D0C291C293C2D9
:1000E00095D2AF32C291C293C295206F0D20650A9E
:1000F0007401D5E0FDE57BF45290D0E0D0D0D2AFD2
:1001000032758A00C28DD26201FA01B930680520C9
:100110006502D29101B9306805206502D29301B918
:10012000306805206502D29501B9D29030680A2066
:1001300065077406D5E0FDD29101B9D29230680A04
:100140002065077406D5E0FDD29301B9D2943068DA
:100150000A2065077406D5E0FDD29501B9C2AFC289
:10016000AD53E6EFC0D0C0E0D2D3D2AFC2CEE52AC5
:10017000600720744F152A21C47800790020742E5E
:10018000E580307E01F430E50278FF53DACF207E3F
:100190000343DA20307E0343DA10C2D8C271E5800F
:1001A000307E01F430E50279FFC3E89970CB30610D
:1001B00003752A40207403752A40885CD270E86079
:1001C00003755F0020740DE52B6004152B21D443CB
:1001D000DA01C2D820700221E7A85C206102C27057
:1001E00020740221E588227882B604038522242027
:0601F000CF0AD0E0D0D0E0
:1001F60043E610D2AD32C2CF053A7802E52A600551
:10020600307402152AC3E55C94014005755F004110
:1002160028756000756900E55F2401F55F50037578
:100226005FFF7982B7020D306E1DC3E5229432401E
:1002360016854C227982B7030E306E0BC3E52294E5
:10024600324004798E8722C3E52395226008400454
:100256001523415C0523D8CA0569E569700215694D
:10026600D56A67756A017808E56B60477805C3E566
:1002760069956B4055C3E569956C50077801756AB9
:1002860003800CC3E569956D50057801756A01C355
:10029600E5629524401D7982B7040241C5206E139C
:1002A600852462E569046003856B69756A017523B7
:1002B6003C8017E5622850057562FF41C5F562E589
:1002C600620470067560FF7569FFD0E0D0D043E622
:1002D60010D2AD32C2AF53E67F7592FA7593FFC264
:1002E60060759104D2AF32C2AF53E6EFC2ADC0D053
:1002F600C0E0C0F0D2D3D2AFA8FBA9FCC2D83071FF
:1003060002615453DACF207E0343DA10307E034372
:10031600DA20D271E580307E01F420E502612B8877
:10032600278928A13753DACF207E0343DA20307E8F
:080336000343DA10C2D8C271C2
:10033E00307402A1237800E580307E01F430E502AE
:10034E00A123885CA10B53DACF207E0343DA203041
:10035E007E0343DA10C271206102812D53DACF2061
:10036E007E0343DA10307E0343DA20C2D8D271887E
:10037E00578958C3E89555F8E99556F97B007E08DC
:10038E007A00C3E8948CE994005005755B00811FD8
:10039E00882178A2E6A8216055C3E894C8E99400A4
:1003AE005008E4D2E4FB7A0A61FAC3E89468E9944F
:1003BE00015008E4D2E3FB7A0F61FAC3E894D0E966
:1003CE0094025008E4D2E2FB7A1E61FAC3E894A0CC
:1003DE00E994055008E4D2E1FB7A3C61FAC3E89453
:1003EE0098E994085008E4D2E0FB7A787E00C3E8DE
:1003FE009559FCE9955AFD30E70AECF42401FCED21
:10040E00F43400FD755B00C3EC9AED9E5003755BF2
:10041E00018859895A8557558558567802A10BC3BC
:10042E00E89527F8E99528F9307C0281EF307B02B8
:0C043E0081EF307A0281E82075028150C5
:10044A00E9FDE8FC816FE9C313F9E813F830790292
:10045A0081E8E9C313F9E813F830780281E8E9C3BF
:10046A0013FDE813FC20612CC3EC941CED940240AC
:10047A00028186ED701EC3EC94C850180529E5293F
:10048A0070021529C3E529940A5002A123755C005C
:10049A00D270A123E529600215297400207F037810
:1004AA0096E624FAFEE43400FFC3EC9EFCED9FFDC1
:1004BA0050067800790081EFC3EC94FFED94004078
:1004CA000678FF790081EFEC8572F0A4C5F0A2F7F7
:1004DA0033F879004002802978FF79008023E9C344
:1004EA0013F9E813F8307C0EE9600278FFC3E813C9
:1004FA0038F8E43400F9C3E894FFE994004002783C
:10050A00FF885CD270206102A123741FF4552F4B1F
:10051A00F52FC274EB7002D274752A4030740375D9
:10052A002A0A306102A13720740353DAFE207403C9
:05053A00752B20D0F03C
:10053F00D0E0D0D0D2AD43E61032790180147903E8
:10054F008010790A800C791E80087964800479C83C
:10055F0080007817E4D5E0FDD8FAD9F6227A147B1B
:10056F007880127A107B8C800C7A0D7BB480067A9F
:10057F000B7BC88000E573D5E001227902E4D292AB
:10058F00D5E0FDD293D5E0FDC293D5E0FDC292D563
:10059F00E0FDE920E002D29130E002D295E573D57B
:1005AF00E0FDE920E002C29130E002C2957496D5D9
:1005BF00E0FDD9C9EAF8D5E0FDD8FBDBB8D292222D
:1005CF00C37C007D0075F00005F0EA33FAEB33FBD6
:1005DF0050F6EB13FBEA13FAC3E9FFE8FEE89AF8CB
:1005EF00E99BF95004EFF9EEF8B3EC33FCED33FD72
:1005FF00D5F0DFEDF9ECF822E889F08A20D2D4F8B3
:10060F00A9F07B0030F70B7BFFF42401F8E9F434F9
:10061F0000F9E88520F0A4ADF0F8E98520F0A4AF4B
:0B062F00F0FEED2EF974003FFA7C0491
:10063A00C3EA13FAE913F9E813F8DCF48BF030F79C
:10064A000AE8F42401F8E9F43400F9E889F0C2D49C
:10065A00F8A9F0227882B60402C1F9C3E55C9419BC
:10066A00401EE52D54067018206E3578057994E7FA
:10067A00146007780A1460027812C3E54198401E94
:10068A00306E098564627569FF756A01852224E402
:10069A00F544F545F546F547F548C26E8051D26EE8
:1006AA007994E7147012E523F43333F913F8E95413
:1006BA000104F9E854FE802BE714147013E523F4BF
:1006CA00333333F913F8E9540304F9E854FC801B73
:1006DA00E523F433333333F913F8E954070404F9FF
:1006EA00E854F8C39440F8E99400F988448945220B
:1006FA00C3E54113F9E54013F8C3E54498F8E54525
:10070A0099F9500BC3E89480E994FF40138015C30C
:10071A00E8947FE994005002800A787F7900800487
:10072A00788079FF8849894A22E5492546F8E54AC9
:10073A003547F9854A20E4300701F43548FA30E7AD
:10074A0008C3EA94F040128016C3EA940F5002805C
:10075A000E78FF79FF7A0F8006780079007AF0C365
:10076A00E52495615009C3740195245009800CE56C
:10077A004A20E70D8005E54A30E706884689478A18
:10078A00482278A5E6FAC3E54933F8E54A33F9D1B0
:10079A0007E930E70BC3E89480E994FF4013E1BF0F
:1007AA00C3E8947FE994005002E1BF787F7900E1C1
:1007BA00BF788079FFE820E713C3E52398F840085B
:1007CA00C3E89401400280117801800DE8F4240105
:1007DA002523F84002800278FF884B2278A6E6FAA1
:1007EA00A847A948D107E930E70BC3E89401E9947F
:1007FA00FF40138015C3E894FFE994005002800A71
:10080A0078FF79008004780179FFE920E713C3E5CE
:02081A004B98F9
:10081C00F84008C3E89401400280117801800DE88B
:10082C00F42401254BF84002800278FF88242278BA
:10083C00FF20692879A1E76023E541601F74FF85DB
:10084C0041F0848539F0306A0375F005A4F8C5F0E1
:10085C00600278FFC3E895645002A864886322C3E1
:10086C00E5409440E5419401E563500314017C0498
:10087C006002F563227883E6F520D1F075E89012DA
:10088C00054975E89030EDFDA8BDA9BEF192756ED5
:10089C0055756F00C3740013FD7455606513FC74BB
:1008AC00552CFC74003DFDECFAEDFBC3E89AE99B7A
:1008BC004014E56E2455F56EE56F3400F56FEA2CA7
:1008CC00FAEB3DFB80E5AE6EAF6FC3E56F13F9E558
:1008DC006E13F8C3E913F9E813F87A03C3E913F9B3
:1008EC00E813F8DAF7AA201A7008756E00756F0015
:1008FC0080101AEA6008EE28FEEF39FFDAF88E6EE7
:02090C008F6FEB
:10090E002275E890227883E6FF30EDF9A8BDA9BEE6
:10091E000570C3E5709408404F757000E9FA79A030
:10092E00E76041EA7006E5716018800CC3E89571C6
:10093E00600EE5715005600A1480070460FA8002AB
:10094E00E571F571C39467401B7561C0C394044093
:10095E0013756180C39404400B756140C3940440C9
:10096E000375610075BB0622EFC39401601E7455BA
:10097E00601AC3E894FFE994035011C3E8956EE939
:10098E00956F5008E561600B15618007E561F460B5
:10099E00020561A861C3E524985002A824C3E89516
:1009AE0062400AA862E562F4600385626188258868
:1009BE0026E570B4070375BB1022743279A787F051
:1009CE00A4C5F0A2F733F8C3E895614002A8618888
:1009DE00228824882588268864227540007541F077
:1009EE0022C2AF75C820A8CCA9CDAA3A30CF010A31
:1009FE0075C824D2AFAB3BAC3C883B893CC3E89B6B
:0E0A0E00F8E99C206908F93066026100415A3F
:100A1C00AD3D8A3DF9EA9DFA600678FF79FF413FCA
:100A2C00AE3EAF3F8B3E8C3FA83BA93CC3E89EF843
:100A3C00E99FF9C3E54113FBE54013FAE82AF540B9
:100A4C00E93BF54150067540FF7541FF41A7AA40AF
:100A5C00AB41AC40AD417E047F02C3EB9404400D2E
:100A6C001E1FC3EB94084005206A021E1FC3ED1322
:100A7C00FDEC13FCDEF7C3EA9CFAEB9DFBEF60097F
:100A8C00C3E913F9E813F8DFF7EA28FAEB39FB8A24
:100A9C00408B4150067BFF8B408B41C3EB94025043
:100AAC0002D2663069047F0341D27892E6FFC3E537
:100ABC0037948240110FC3E53794A040010FC3EF68
:100ACC00940640027F057E02E541C4540FF9E541CE
:100ADC00C454F0F8E540C4540F28F8C3E89EFAE972
:0E0AEC009400FB4009C3EA9402EB940050040E
:100AFA007A02E4FB614CAA40AB41EBC4FEEAC4545F
:100B0A000F4EFCC3EA9CFAEB9400FBC3E813C31331
:100B1A00F8EA28FAEB3400FB8A408B41C3EB9402D3
:100B2A004002C2667802EBC4FE7B00EAC4540F4E50
:100B3A00FAC3EA98FA4005C3940250027A027892FC
:100B4A00E6FF306002614C855192855293D2604330
:100B5A00E680C3E49AF8E49BF930660261D7E8FAC2
:100B6A00E9FBD3E913FDE813FC88518952C3EF94DA
:100B7A00036037EF20E00CE82CF8E93DF9ECFAEDD8
:100B8A00FB8013E828F8E939F9C3E82402F8E934C4
:100B9A0000F97AFE7BFFC3EF9403400E8A538B540D
:100BAA00884D894E8C4F8D50810B885389548A4DBC
:100BBA008B4E8C4F8D503069127553F07554FF75FA
:100BCA004FF07550FF7551F07552FF810BE8FAD35B
:100BDA00E813FC8851C3EF94036020EF20E007E894
:100BEA002CF8ECFA61F7E8282402F87AFEC3EF94AD
:100BFA000340088A53884D8C4F810B88538A4D8C49
:100C0A004FE568C3335002646BF5683060028115A2
:100C1A00753402D26043E680E52D54066034A8405C
:100C2A00A941C3E913F9E813F8C3E913F9E813F87A
:100C3A00306904E92440F9C2AF53E67F759100C3D5
:100C4A00E498F594E499F595759104D26043E680A9
:100C5A00D2AF22D264754300752000306C03752030
:100C6A0040800ED264754300752040306C037520B5
:100C7A000078017901206620E52D54066002C264DD
:100C8A007914E541C313700104F8C394144002783F
:100C9A0014306904781B791B206010E543600C301E
:100CAA006903D53404D26DA125911D0543E59B54F2
:100CBA0040B52002A10F30690908C3E8994001181C
:100CCA0081A220640A08C3E8994002817B81A2C2FA
:100CDA0064C2AF53E67F7591003066127594007551
:050CEA0095F87591046E
:100CEF00D26043E680D2AF817BE5417EFFC33340C4
:100CFF0005C3334001FEC3E49E759400F59581EC66
:100D0F00C3E53394015002817B306402817BD802AA
:100D1F00A12381A2C26DC2AF53E67F7591008553A7
:100D2F0094855495759104854D92854E93D2604369
:100D3F00E680D2AFE52D54066007206A02053380A6
:100D4F0010306D0D206C0A20640715811581021576
:100D5F00F82278003064027801E53775F007A4F9BE
:100D6F00E5F028F5F0E9A2F013A2F113A2F213F5C2
:100D7F0037C394785003753778C3E53795384008F3
:100D8F00D265C291C293C295306002A197854F92EE
:100D9F00855093D26043E68022207D15C2AF754205
:100DAF0002D292C290306202D295D2AF759F02E109
:100DBF008FC2AF754202D292C294306202D291D2E8
:100DCF00AF759F02E18F307243207D20C2AF754215
:100DDF000390013B757B04C295D294306204D29389
:100DEF00A1F3C292D2AF759F03020F8FC2AF7542AC
:100DFF000390013B757B04C291D290306204D29371
:100E0F00C113C292D2AF759F01020F8F207D17C2FF
:100E1F00AF754203900116C295306202D293D2AFE2
:0B0E2F00759F03020F8FC2AF754203D6
:100E3A00900116C291306202D293D2AF759F01021D
:100E4A000F8F207D15C2AF754204D290C2943062D2
:100E5A0002D293D2AF759F01E18FC2AF754204D21D
:100E6A0094C290306202D293D2AF759F03E18F3061
:100E7A007243207D20C2AF75420590012A757B011D
:100E8A00C293D292306204D291C197C290D2AF7506
:100E9A009F02020F8FC2AF75420590014C757B10FD
:100EAA00C293D292306204D295C1B7C294D2AF75BE
:100EBA009F02020F8F207D17C2AF75420590010C69
:100ECA00C293306202D291D2AF759F02020F8FC2D3
:100EDA00AF754205900120C2933062EBD295D2AF32
:100EEA00759F02020F8F207D15C2AF754206D294FC
:100EFA00C292306202D291D2AF759F03E18FC2AF24
:100F0A00754206D290C292306202D295D2AF759FD4
:100F1A00018072307242207D20C2AF754201900179
:100F2A004C757B10C291D290306204D295E13BC2DB
:100F3A0094D2AF759F01020F8FC2AF754201900123
:100F4A002A757B01C295D294306204D2918002C282
:100F5A0090D2AF759F03802D207D16C2AF754201D6
:100F6A00900120C291306202D295D2AF759F018062
:100F7A0014C2AF75420190010CC295306202D2913F
:100F8A00D2AF759F03C2652290010A757B00C29198
:0D0F9A00C293C295D290D292D294C262222C
:100FA700788076070876070876010876040876FFC2
:100FB7000876FF0876090876020876010876017830
:100FC7008C76010876000876B40876FF0876FF0865
:100FD70076FF0876030876FF0876010876FF08761D
:100FE700250876D00876780876C80876040876FF4C
:100FF70008760108760008767A08760A08760108E6
:1010070076010876000876FF087600227887E6FFE3
:10101700C272BF0302D2727888C27DE630E102D283
:101027007DC27E7889E630E102D27EC3EF9402600A
:1010370007758E01D2738005758E00C27322788082
:10104700E6149000809378A5F67881E614900080E6
:101057009378A6F67886E61490008D9378A7F678AD
:101067009FE6F87005756B00018BC3E89411400289
:101077007811E82828F56B256B256B28F56C256B0F
:101087002828F56D7886E6F539C39402500375393B
:0410970002789CE659
:10109B007538FFB402037538A0B403037538827832
:1010AB00A3E61490009A93F566120F92222278967B
:1010BB00E6FA7897E6FB7888E6B40305C3EB940E63
:1010CB00FB307F047A007BFFC3EB9AFCC394825006
:1010DB00027C827572000572EC8572F0A4C3E5F098
:1010EB00947D40F222D27F11B91205551205557A23
:1010FB00007B007C1012054DE55C2AFA74003BFB6B
:10110B00DCF37C04C3EB13FBEA13FADCF7FEC27FC0
:10111B0011B922757C00757D00E5EF20E603752083
:10112B00000520903FFFE520146006901FFF146020
:10113B00009304600375EF167597DE7597AD758197
:10114B00C043FF8012054975EF0675A900E5C7245A
:10115B000220E70DF521E5B120E0068521C743B15B
:10116B0001120F927580FF75A40075F1B075D4DF75
:10117B0075901575A53F75F23F75D50075A6017570
:10118B00E34075E201120F92E4F8F6D8FD756801A1
:10119B00120FA7D14F78988673753001C2AF120525
:1011AB005D12056C12055512057212055512057864
:1011BB00120555F17212055D12055D120559C2AF8C
:0F11CB00757C00757D0078FA79FA308507D9FBBD
:1011DA00D8F7021C001113114511B811B978988675
:1011EA0073120F9275881075890275C82475910457
:1011FA0075D84075A82275B80275E690759B8075FA
:10120A009D0075D10C75BC5975BB0675E88075B221
:10121A0001120549D2AF12088175360053DACF2080
:10122A007E0343DA20307E0343DA1043DA01C2D860
:10123A00C27112055DD2617B037A0CE55B70077A95
:10124A000CDB030211C91205552070030211C9C231
:10125A0070E55CC3940240E1E52F541F855E5DF59D
:10126A005EB55DD5DAD5C26153DACF207E0343DAA3
:10127A0020307E0343DA10C2D8C27178A2E6700821
:10128A00D274E52F54E0F52FC2757529001205595D
:10129A00307409C3E529940A4002D27512054D78C3
:1012AA00023074027800C3E55C9840F0C2AF1205C0
:1012BA006C12056C12056CD2AF12055D754C0012EA
:1012CA00054D788CE6C39401500261AEE530C394B3
:1012DA0001500261AE757CA5757DF1207433C3E5BA
:1012EA005C94FF500261AEC2AF12057ED2AF120506
:1012FA0059C3E55C940150EFC2AF12056C12055157
:10130A0012056CD2AF120559C3E55C94FF40E9E1BE
:10131A00F77F05D27F11B9120559C2AFC27F11B941
:0B132A00AE5CC3E55C947FD2AF5002C4
:1013350061BE120549C2AF12057ED2AFDFDA11F0E8
:10134500C3EE94057897F612055DF17A7F0AD27F90
:1013550011B9120559C2AFC27F11B9AE5CC3E55CC4
:10136500947FD2AF50E6120549C2AF12056C120543
:101375005112056CD2AFDFD611F0EE24037896F644
:10138500F87997E7C394824003985006E824827859
:1013950097F612055DD196F1A912055911B9C3E564
:1013A5005C94FF500241DFE1F7757C00757D00C359
:1013B500E55C954C4003855C4C12055978017988AC
:1013C500E7B403027805C3E55C98400241C9C2AFA2
:1013D50012057E12057E12057ED2AF12055D7530AF
:1013E50000E4F531F5320531E531F4703F05327829
:1013F5009AE67819146012783214600D787D1460BD
:101405000878FA146003753200C3E53298401D125E
:101415000F92120549153275310078998673C2AF5E
:1014250012057ED2AF78988673120559120551E5DB
:101435002A700530740221C978012074027806C328
:10144500E55C9840A1120559E52A70030211C9C24D
:0F145500AF120F92E4F522F523F524F525F526C5
:10146400F567D2AF7885E6C333F565E4F544F54511
:10147400F546F547F548F570F52CF52DF5377570FB
:101484000875BB1012054912090F30EDFDA8BDA95E
:10149400BEE97001F8887112091375700875BB10E4
:1014A4001113C2AF7561FF1209C8852261852262DA
:1014B400852263D2AF752201752401752501752635
:1014C40001856069756A017888E6B40307C27D30D6
:1014D4007602D27DD268D269753300120EF0120FF3
:1014E4001D1209E81209EF1209E81209EF1209E8BE
:1014F400120C6D12065E120D61120DA81209EF1284
:101504000C5D306E031206FA20660312083B306647
:101514000312086B120D61120DD51209EF120C6D36
:10152400306E03120733120D61120E4C1209EF12C2
:101534000C5D306E0312078C120D61120E791209C4
:10154400EF120C6D306E031207E6120D61120EF0ED
:101554001209EF12090F120C5D120D61120F1D1208
:1015640009131209EF30692A856461856462856014
:1015740069756A0179187A0CC3E533994008C26920
:10158400D26A8A35800CC3E55C940140030214F4EA
:10159400806A306A24206C21E535147006C26AD250
:1015A4006B81F4F535C3E55C940140030214F478CF
:1015B40088E6C3940360028043753600C3E55F94F4
:0E15C400014009856462856069756A0178FAE4
:1015D20079A4E760027803C3E55F98502130740470
:1015E200E52A601A78F0306C058564617820C3E5DD
:1015F2004198500281F40536E55C6002C1037536FC
:1016020000C2AF120F927887E6FE76021113788736
:10161200EEF6E4F522F523F524F525F526F56575B4
:101622002C00752D00D2AF120559120F9278A4E644
:101632006006D291D293D295307406E52A700221C7
:10164200C9788DE6C39401400241A661E6901A0D65
:101652007820D1CFE520B4A50AA3D1CFE520B45A92
:10166200028013757CA5757DF1120FA7D196757C4A
:1016720000757D00801D901A0378807B0AD1CFA36C
:1016820008DBFA901A0F788C7B19D1CFA308DBFA0A
:10169200901A2822C2AFF112D1EF901A00740ED123
:1016A200D4A37409D1D4A37415D1D4901A03788029
:1016B2007B0AD1D3A308DBFA901A0F788C7B19D15D
:1016C200D3A308DBFAF125F103901A2822E493F65A
:1016D20022E6438F01538FFDFFC3E583941C400133
:1016E20022EF857CB7857DB7F0538FFE22438F02B0
:1016F200438F01857CB7857DB7901A0DF0538FFC1F
:1017020022901A0D74A5D1D4901A0E745AD1D422F3
:101712007A3079D07820901A40D1CFE520F709A30A
:10172200DAF7227A3079D0901A40E7D1D409A3DAD5
:10173200F922AB74A875BB01027980BB02027981E0
:10174200BB03027982BB04027994BB05027983BB95
:1017520006027986BB07027992BB08027987BB0928
:1017620002799CBB0A027988BB0B027989E8F722CD
:101772007C0512055DDCFB22C2AF12056C120572FC
:1017820012057812057E12055112056C12057212AD
:10179200057812057E12055112056C1205721205AA
:1017A2007812057ED2AF22C2AF12057E12057812E0
:1017B200057212056C12055112057E12057812058A
:1017C2007212056C12055112057E1205781205720D
:1017D20012056CD2AF22AE74AF75C2AF12056C1295
:1017E200056C12056C120551DEF212057E120551CE
:1017F200DFF8D2AF22F17AF172F172757401757568
:10180200017576001217D87C05AD5C12055DC3ED3B
:10181200955C70F5C3E55C9401400AC3E55C94FFF6
:10182200403702183812173412169612177AC2AFBE
:1018320075EF16121772DCD10576C3E57694035064
:101842000280C11217720575E5741490009F93F817
:1018520008C3E57598500280A81217721217720514
:1018620074C3E574940C50028094120FA71216965A
:08187200C2AF75EF16121772E8
:101C0000C2AFC2D37597DE7597AD7581C075A90057
:101C100043FF80752438752503B1DB7529A5752A26
:101C2000F175E34043F12053A4DF75D4FFD2857DE5
:101C3000FA780379067C01752200752300901DE86F
:101C40007B067524E67525FF3085028148208508CE
:101C5000D8FBD9F9DCF781BA308508D8FBD9F9DC93
:101C6000F781BAB19BE493A3C39A6004DDC381BA40
:101C7000DBDBB18D600281317B08E493FAA3B16EA6
:101C8000DBF87A30B16E752200752300B18DEAFC65
:101C9000EBFDC3ED94FE400EB18D8A278B28ED300D
:101CA000E0048A828B83B18D7AC270D8C3ED94FE32
:101CB000601950CEBD0029EC600F7520007521FF22
:101CC000752900752A000200008100A827A92808AC
:101CD00009D804D90281DDB191EAF281D10D81A642
:101CE000C3ED94035051EDA2E092007AC5C3E582A2
:101CF0009400E583941C508C200010438F02438F86
:101D0000018529B7852AB7F0300027A827A9280818
:101D100009438F01538FFDD804D902A132C3E58353
:101D2000941C4003A3A117E28529B7852AB7F0A325
:101D3000A117538FFC81827AC1BD030CE493A3FAEF
:101D4000B152DCF8B14A81828184AA22AB23B16E00
:101D5000EBFAEA6222752608C3E52313F523E52290
:101D600013F52250066323A0632201D526EAB1DBD6
:101D7000B1DB75260AEAF4200102D285300102C2E5
:101D800085B1DBC3134002C201D526EB22B191EA33
:101D9000FB208502A191308502A196752608AE240C
:101DA000AF25C3EF13FFEE13FEB1DFB1DBC3EA13C0
:101DB0003085024480FA30E703632201C3E5231330
:101DC000F523E52213F52250066323A0632201D5F3
:101DD00026D9E52265236523F52222AE24AF250E00
:101DE0000FDEFEDFFCD20122424C48656C693437BD
:061DF0003164F850060109
:0319FD0002111EB6
:00000001FF
